:100000000EC028C0A7C026C070C024C023C022C014
:1000100021C020C01FC01EC01DC01CC01BC0112499
:100020001FBECFE5D2E0DEBFCDBF10E0A0E6B0E05E
:10003000E0ECF4E002C005900D92A236B107D9F7CA
:1000400020E0A2E6B0E001C01D92AA37B207E1F7B6
:1000500002D034C2D5CFB89AC098AC9A8BB7806220
:100060008BBF80B7826080BF89B7846089BF789476
:100070008AB583688ABD83B7816083BF91E0809130
:100080006000811110C0809165008330C0F38091C1
:1000900062008823A1F3F89490936000B89A83B724
:1000A000816083BF20C080916500833020F0809103
:1000B00062008111E4CFF89483B78E7F83BFC0982C
:1000C000B8981092600010926A0010926B00109223
:1000D0006C0010926D0010926600109267001092F2
:1000E0006800109269007894CACF1F920F920FB6E1
:1000F0000F9211242F938F939F93AF93BF9380916F
:10010000720090917300A0917400B09175009F5F90
:10011000AF4FBF4F8093720090937300A093740011
:10012000B09375008091720090917300A09174005B
:10013000B09175000097A840B10510F010926200D0
:10014000BF91AF919F918F912F910F900FBE0F9004
:100150001F9018951F920F920FB60F9211248F9235
:100160009F92AF92BF92CF92DF92EF92FF922F9326
:100170003F934F935F936F937F938F939F93AF932F
:10018000BF93EF93FF938091720090917300A091C1
:100190007400B091750080936E0090936F00A093EF
:1001A0007000B09371008FB580936400B49BF8C069
:1001B0008091630081111DC081E0809363001092E3
:1001C00072001092730010927400109275001092D9
:1001D0006E0010926F0010927000109271001092D9
:1001E00076001092770010927800109279001FBC70
:1001F00011C12091640080916E0090916F00A091D8
:100200007000B0917100820F911DA11DB11D8093EE
:100210006E0090936F00A0937000B0937100609196
:1002200076007091770080917800909179008090AD
:100230006E0090906F00A0907000B0907100C09020
:100240006A00D0906B00E0906C00F0906D0024E6A6
:1002500030E040E050E0F7D0A50194010DD1942F9B
:10026000832F722F662724E630E040E050E004D16F
:10027000C20ED31EE41EF51EC0926A00D0926B001F
:10028000E0926C00F0926D008091660090916700A2
:10029000A0916800B09169000196A11DB11D8093E5
:1002A000660090936700A0936800B0936900109275
:1002B00063008091660090916700A0916800B09102
:1002C000690081159640A105B10508F4A3C06091AD
:1002D0006A0070916B0080916C0090916D0020918C
:1002E0006600309167004091680050916900C4D069
:1002F000DA01C9019927AA27BB2780936A00909346
:100300006B00A0936C00B0936D0080916A00909197
:100310006B00A0916C00B0916D000297A105B10532
:1003200018F41092650025C080916A0090916B00CE
:10033000A0916C00B0916D00893F9105A105B105B8
:1003400010F08FEF14C080916A0090916B00A09123
:100350006C00B0916D000297A105B10550F080913D
:100360006A0090916B00A0916C00B0916D00809339
:10037000650081E08093620010926A0010926B0029
:1003800010926C0010926D0010926600109267003F
:1003900010926800109269008091650089BD3AC092
:1003A000809163008823B1F12091640080916E00F8
:1003B00090916F00A0917000B0917100820F911D1B
:1003C000A11DB11D80936E0090936F00A0937000EB
:1003D000B093710080916E0090916F00A0917000B9
:1003E000B09171008093720090937300A093740099
:1003F000B093750080916E0090916F00A091700095
:10040000B09171008093760090937700A09378006C
:10041000B0937900FF91EF91BF91AF919F918F9130
:100420007F916F915F914F913F912F91FF90EF904E
:10043000DF90CF90BF90AF909F908F900F900FBEA6
:100440000F901F901895EE27FF27AA27BB2708C0FB
:10045000A20FB31FE41FF51F220F331F441F551FA8
:10046000969587957795679598F37040A9F70097CB
:1004700099F7BD01CF010895A1E21A2EAA1BBB1B5B
:10048000FD010DC0AA1FBB1FEE1FFF1FA217B30760
:10049000E407F50720F0A21BB30BE40BF50B661F76
:1004A000771F881F991F1A9469F76095709580953A
:1004B00090959B01AC01BD01CF010895F894FFCF49
:0204C000010039
:00000001FF
