S012000050574D426F6F737465722E7372656340
S11300000EC028C0C8C026C091C024C023C022C0CE
S113001021C020C01FC01EC01DC01CC01BC0112495
S11300201FBECFE5D2E0DEBFCDBF10E0A0E6B0E05A
S1130030EAE0F5E002C005900D92A236B107D9F7C7
S113004020E0A2E6B0E001C01D92AB37B207E1F7B1
S113005002D059C2D5CFB89AC098AC9A8BB78062F7
S11300608BBF80B7826080BF89B7846089BF789472
S11300708AB583688ABD83B7816083BF91E02FEF1F
S113008080916000B49B1EC0309162003323D1F094
S113009040917300509174006091750070917600E6
S11300A0411551056640710568F08111E9CFF89456
S11300B0B89A83B7816083BF9093600020936600F1
S11300C029BD32C0811110C0809166008330C0F216
S11300D0809163008823A1F2F89490936000B89A09
S11300E083B7816083BF20C080916600833020F095
S11300F0809163008111C4CFF89483B78E7F83BF4E
S1130100C098B8981092600010926B0010926C0026
S113011010926D0010926E001092670010926800A9
S11301201092690010926A007894AACF1F920F92DD
S11301300FB60F9211242F938F939F93AF93BF9376
S11301408091730090917400A0917500B091760035
S11301509F5FAF4FBF4F8093730090937400A09341
S11301607500B09376008091730090917400A09113
S11301707500B09176000097A640B10510F010927A
S11301806300BF91AF919F918F912F910F900FBEFC
S11301900F901F9018951F920F920FB60F92112473
S11301A08F929F92AF92BF92CF92DF92EF92FF9283
S11301B02F933F934F935F936F937F938F939F936B
S11301C0AF93BF93EF93FF9380917300909174006A
S11301D0A0917500B091760080936F0090937000A9
S11301E0A0937100B09372008FB580936500109254
S11301F06200B49BFAC081E0809362009091640035
S113020091111CC0809364001092730010927400CA
S1130210109275001092760010926F001092700088
S11302201092710010927200109277001092780070
S11302301092790010927A001FBC11C120916500C0
S113024080916F0090917000A0917100B091720044
S1130250820F911DA11DB11D80936F0090937000BA
S1130260A0937100B0937200609177007091780050
S11302708091790090917A0080906F009090700046
S1130280A0907100B0907200C0906B00D0906C0090
S1130290E0906D00F0906E0024E630E040E050E025
S11302A0F7D0A50194010DD1942F832F722F6627C7
S11302B024E630E040E050E004D1C20ED31EE41E38
S11302C0F51EC0926B00D0926C00E0926D00F0922B
S11302D06E008091670090916800A0916900B091D0
S11302E06A000196A11DB11D809367009093680078
S11302F0A0936900B0936A00109264008091670033
S113030090916800A0916900B0916A0081159240B3
S1130310A105B10508F4A3C060916B0070916C0055
S113032080916D0090916E0020916700309168007B
S11303304091690050916A00C4D0DA01C90199273B
S1130340AA27BB2780936B0090936C00A0936D0049
S1130350B0936E0080916B0090916C00A0916D0041
S1130360B0916E000297A105B10518F410926600D1
S113037025C080916B0090916C00A0916D00B091AC
S11303806E00853F9105A105B10510F08FEF14C0F3
S113039080916B0090916C00A0916D00B0916E0003
S11303A00297A105B10550F080916B0090916C000B
S11303B0A0916D00B0916E008093660081E08093FF
S11303C0630010926B0010926C0010926D001092FA
S11303D06E001092670010926800109269001092EB
S11303E06A008091660089BD3AC0809164008823C8
S11303F0B1F12091650080916F0090917000A091FF
S11304007100B0917200820F911DA11DB11D8093E6
S11304106F0090937000A0937100B093720080916C
S11304206F0090917000A0917100B0917200809360
S1130430730090937400A0937500B093760080913C
S11304406F0090917000A0917100B0917200809340
S1130450770090937800A0937900B0937A00FF918D
S1130460EF91BF91AF919F918F917F916F915F9128
S11304704F913F912F91FF90EF90DF90CF90BF90DD
S1130480AF909F908F900F900FBE0F901F90189574
S1130490EE27FF27AA27BB2708C0A20FB31FE41F1C
S11304A0F51F220F331F441F551F96958795779587
S11304B0679598F37040A9F7009799F7BD01CF01AC
S11304C00895A1E21A2EAA1BBB1BFD010DC0AA1F91
S11304D0BB1FEE1FFF1FA217B307E407F50720F0A9
S11304E0A21BB30BE40BF50B661F771F881F991F24
S11304F01A9469F760957095809590959B01AC016D
S10D0500BD01CF010895F894FFCF68
S105050A0100EA
S9030000FC
