:100000000EC028C0A4C026C069C024C023C022C01E
:1000100021C020C01FC01EC01DC01CC01BC0112499
:100020001FBECFE5D2E0DEBFCDBF10E0A0E6B0E05E
:10003000E8E0F4E002C005900D92A236B107D9F7CE
:1000400020E0A2E6B0E001C01D92A237B207E1F7BE
:1000500002D0D8C1D5CFB89AC098AC9A8BB780627D
:100060008BBF80B7826080BF89B7846089BF789476
:100070008AB583688ABD83B7816083BF91E0809130
:1000800065008B3078F08091600081110BC0809109
:100090006200882339F090936000B89A83B781603A
:1000A00083BF14C0809165008B3020F48091600084
:1000B000811104C080916200811108C019BC1092A6
:1000C000600083B78E7F83BFC098B898809160002E
:1000D0008823A9F28091650089BDD1CF1F920F922C
:1000E0000FB60F9211242F938F939F93AF93BF93CB
:1000F000F8948091660090916700A0916800B0919B
:10010000690081509F4FAF4FBF4F8093660090931F
:100110006700A0936800B093690080916600909199
:100120006700A0916800B091690081309048A105F6
:10013000B10510F0109262007894BF91AF919F9139
:100140008F912F910F900FBE0F901F9018951F92B7
:100150000F920FB60F9211248F929F92AF92BF927F
:10016000CF92DF92EF92FF922F933F934F935F9343
:100170006F937F938F939F93AF93BF93EF93FF936F
:10018000F894FFB48091640087FF50C060916A00CA
:1001900070916B0080916C0090916D0020916400D3
:1001A00030E040E050E00CD120936A0030936B00C7
:1001B00040936C0050936D0080916A0090916B00A9
:1001C000A0916C00B0916D008A3018F41092650017
:1001D00020C080916A0090916B00A0916C00B0915A
:1001E0006D008A3F10F08FEF12C080916A009091ED
:1001F0006B00A0916C00B0916D008A3050F080913E
:100200006A0090916B00A0916C00B0916D0080939A
:10021000650081E08093620010926A0010926B008A
:1002200010926C0010926D0010926400B49B6DC02F
:1002300080916300811114C081E08093630010926B
:100240006600109267001092680010926900109288
:100250006E0010926F00109270001092710053C0E7
:100260008091660090916700A0916800B09169004C
:100270008F0D911DA11DB11D8093660090936700A5
:10028000A0936800B093690060916E0070916F0058
:10029000809170009091710080906600909067004E
:1002A000A0906800B0906900C0906A00D0906B0088
:1002B000E0906C00F0906D0024E630E040E050E00B
:1002C00066D0A50194017CD0CA01B9012FEF30E0BE
:1002D00040E050E05CD024E630E040E050E070D0F8
:1002E000C20ED31EE41EF51EC0926A00D0926B00AF
:1002F000E0926C00F0926D00809164008F5F8093BB
:100300006400109263001FBC28C0809163008823A2
:1003100021F18091660090916700A0916800B091F2
:1003200069008F0D911DA11DB11D809366009093F2
:100330006700A0936800B093690080916600909177
:100340006700A0916800B091690080936E0090935F
:100350006F00A0937000B09371007894FF91EF91BB
:10036000BF91AF919F918F917F916F915F914F91CD
:100370003F912F91FF90EF90DF90CF90BF90AF9083
:100380009F908F900F900FBE0F901F901895EE27A3
:10039000FF27AA27BB2708C0A20FB31FE41FF51F22
:1003A000220F331F441F551F9695879577956795A4
:1003B00098F37040A9F7009799F7BD01CF01089510
:1003C000A1E21A2EAA1BBB1BFD010DC0AA1FBB1F59
:1003D000EE1FFF1FA217B307E407F50720F0A21BCB
:1003E000B30BE40BF50B661F771F881F991F1A9438
:1003F00069F760957095809590959B01AC01BD0162
:08040000CF010895F894FFCF2D
:020408000100F1
:00000001FF
